{
  "_format": "hh-sol-artifact-1",
  "contractName": "Marketplace",
  "sourceName": "contracts/Marketplace.sol",
  "abi": [
    {
      "anonymous": false,
      "inputs": [
        {
          "indexed": true,
          "internalType": "address",
          "name": "buyer",
          "type": "address"
        },
        {
          "indexed": true,
          "internalType": "address",
          "name": "owner",
          "type": "address"
        },
        {
          "indexed": true,
          "internalType": "uint256",
          "name": "tokenId",
          "type": "uint256"
        },
        {
          "indexed": false,
          "internalType": "address",
          "name": "nftContractAddress",
          "type": "address"
        },
        {
          "indexed": false,
          "internalType": "uint256",
          "name": "price",
          "type": "uint256"
        }
      ],
      "name": "Buy",
      "type": "event"
    },
    {
      "anonymous": false,
      "inputs": [
        {
          "indexed": true,
          "internalType": "address",
          "name": "owner",
          "type": "address"
        },
        {
          "indexed": true,
          "internalType": "uint256",
          "name": "tokenId",
          "type": "uint256"
        },
        {
          "indexed": true,
          "internalType": "address",
          "name": "nftContractAddress",
          "type": "address"
        }
      ],
      "name": "Cancel",
      "type": "event"
    },
    {
      "anonymous": false,
      "inputs": [
        {
          "indexed": true,
          "internalType": "address",
          "name": "owner",
          "type": "address"
        },
        {
          "indexed": true,
          "internalType": "uint256",
          "name": "tokenId",
          "type": "uint256"
        },
        {
          "indexed": false,
          "internalType": "address",
          "name": "nftContractAddress",
          "type": "address"
        },
        {
          "indexed": false,
          "internalType": "uint256",
          "name": "price",
          "type": "uint256"
        }
      ],
      "name": "List",
      "type": "event"
    },
    {
      "inputs": [
        {
          "internalType": "uint256",
          "name": "tokenId",
          "type": "uint256"
        },
        {
          "internalType": "address",
          "name": "nftContractAddress",
          "type": "address"
        }
      ],
      "name": "buyNFT",
      "outputs": [],
      "stateMutability": "payable",
      "type": "function"
    },
    {
      "inputs": [
        {
          "internalType": "uint256",
          "name": "tokenId",
          "type": "uint256"
        },
        {
          "internalType": "address",
          "name": "nftContractAddress",
          "type": "address"
        }
      ],
      "name": "cancelListing",
      "outputs": [],
      "stateMutability": "nonpayable",
      "type": "function"
    },
    {
      "inputs": [
        {
          "internalType": "uint256",
          "name": "tokenId",
          "type": "uint256"
        },
        {
          "internalType": "uint256",
          "name": "price",
          "type": "uint256"
        },
        {
          "internalType": "address",
          "name": "_nftContractAddress",
          "type": "address"
        }
      ],
      "name": "listNFT",
      "outputs": [],
      "stateMutability": "nonpayable",
      "type": "function"
    },
    {
      "inputs": [
        {
          "internalType": "address",
          "name": "",
          "type": "address"
        },
        {
          "internalType": "uint256",
          "name": "",
          "type": "uint256"
        }
      ],
      "name": "listings",
      "outputs": [
        {
          "internalType": "uint256",
          "name": "",
          "type": "uint256"
        }
      ],
      "stateMutability": "view",
      "type": "function"
    }
  ],
  "bytecode": "0x608060405234801561001057600080fd5b506001600055610820806100256000396000f3fe60806040526004361061003e5760003560e01c806207df301461004357806302998cf31461008d57806360101d3a146100af578063d8db47a7146100cf575b600080fd5b34801561004f57600080fd5b5061007b61005e366004610731565b600160209081526000928352604080842090915290825290205481565b60405190815260200160405180910390f35b34801561009957600080fd5b506100ad6100a836600461075d565b6100e2565b005b3480156100bb57600080fd5b506100ad6100ca366004610796565b6102d9565b6100ad6100dd366004610796565b610468565b6001600160a01b03811660009081526001602090815260408083208684529091529020541561014f5760405162461bcd60e51b8152602060048201526014602482015273151bdad95b88185b1c9958591e481b1a5cdd195960621b60448201526064015b60405180910390fd5b6040516331a9108f60e11b8152600481018490526001600160a01b03821690636352211e90602401602060405180830381865afa158015610194573d6000803e3d6000fd5b505050506040513d601f19601f820116820180604052508101906101b891906107c6565b6001600160a01b0316336001600160a01b0316146102245760405162461bcd60e51b8152602060048201526024808201527f4f6e6c79206f776e65722063616e206c69737420746865204e465420666f722060448201526373616c6560e01b6064820152608401610146565b600082116102745760405162461bcd60e51b815260206004820152601f60248201527f5072696365206d7573742062652067726561746572207468616e207a65726f006044820152606401610146565b6001600160a01b038116600081815260016020908152604080832087845282529182902085905581519283528201849052849133917f9b2c2060125acbb354a4a920d52588cb0024b0eead356cfc9f62c3b041fe3c63910160405180910390a3505050565b6001600160a01b038116600090815260016020908152604080832085845290915281205490036103415760405162461bcd60e51b8152602060048201526013602482015272151bdad95b881a5cc81b9bdd081b1a5cdd1959606a1b6044820152606401610146565b6040516331a9108f60e11b8152600481018390526001600160a01b03821690636352211e90602401602060405180830381865afa158015610386573d6000803e3d6000fd5b505050506040513d601f19601f820116820180604052508101906103aa91906107c6565b6001600160a01b0316336001600160a01b0316146104145760405162461bcd60e51b815260206004820152602160248201527f4f6e6c79206f776e65722063616e2063616e63656c20746865206c697374696e6044820152606760f81b6064820152608401610146565b6001600160a01b038116600081815260016020908152604080832086845290915280822082905551849133917f9ea4986863fc3dd36f15c8e76cecf44f311c121dc511ea352087a3e351b27ec99190a45050565b6001600160a01b038116600090815260016020908152604080832085845290915281205490036104d05760405162461bcd60e51b8152602060048201526013602482015272151bdad95b881a5cc81b9bdd081b1a5cdd1959606a1b6044820152606401610146565b6001600160a01b03811660009081526001602090815260408083208584529091529020543410156105385760405162461bcd60e51b8152602060048201526012602482015271496e73756666696369656e742066756e647360701b6044820152606401610146565b6040516331a9108f60e11b8152600481018390526000906001600160a01b03831690636352211e90602401602060405180830381865afa158015610580573d6000803e3d6000fd5b505050506040513d601f19601f820116820180604052508101906105a491906107c6565b6001600160a01b038381166000908152600160209081526040808320888452909152808220805490839055905193945092849283169034908381818185875af1925050503d8060008114610614576040519150601f19603f3d011682016040523d82523d6000602084013e610619565b606091505b505090508061065f5760405162461bcd60e51b8152602060048201526012602482015271151c985b9cd858dd1a5bdb8819985a5b195960721b6044820152606401610146565b6040516323b872dd60e01b81526001600160a01b038581166004830152336024830152604482018890528616906323b872dd90606401600060405180830381600087803b1580156106af57600080fd5b505af11580156106c3573d6000803e3d6000fd5b5050604080516001600160a01b038981168252602082018890528a94508816925033917f8870a84c4ffeabaf12b2d60c6cd4671cd4fc012d1b850f5643a16174af016184910160405180910390a4505050505050565b6001600160a01b038116811461072e57600080fd5b50565b6000806040838503121561074457600080fd5b823561074f81610719565b946020939093013593505050565b60008060006060848603121561077257600080fd5b8335925060208401359150604084013561078b81610719565b809150509250925092565b600080604083850312156107a957600080fd5b8235915060208301356107bb81610719565b809150509250929050565b6000602082840312156107d857600080fd5b81516107e381610719565b939250505056fea26469706673582212200cbd35f7e5b41eafc0590ea13c8f968376da8ec2dffab0990d523bf90e432f9864736f6c63430008110033",
  "linkReferences": {},
  "deployedLinkReferences": {}
}